:1000000030EF0BF00000000000EF00F000000000F7
:0A0010000000000000000000F3D71C
:08001C000AAE029E000E120064
:100024000B820BAE1CEF00F00368026801680068E5
:080034000A360232FF0E120031
:0E003C00026A016A006A086A036A000E120076
:10004A000B840BAE30EF00F0010E036E026A016AF8
:0A005A00006A0A360232FF0E12009F
:10006400070E0A015B6F000E5C6F5D6B5BCA01F0EB
:10007400010E006E015004E000360090FF0FFBD724
:10008400001E00505A175A530AE05D53010ED8A4BB
:10009400000E5D6F5A05006E00505A17F4D75DCA02
:0400A40000F0120056
:1000A800070E0A01576F000E586F56CA5AFAD6DF64
:1000B8000050000A0EE157CA01F0010E006E01500F
:1000C80004E000360090FF0FFBD7001E00505617C3
:1000D8000CD057CA01F0010E006E015004E0003642
:1000E8000090FF0FFBD70050561356CA00F01200BD
:0800F8000B6A0B86FF0E1200DB
:0E010000ACB202D00000FCD756CAADFF120010
:10010E000C6A0E6A0250D8A4A0EF00F001C002F0F3
:10011E0000C001F0006A0E860250D8A4A0EF00F0D5
:10012E0001C002F0016A0E960E880250D8B4B2EFEA
:10013E0000F00E50035ED8A4D8A0B7EF00F0D89010
:10014E0002BEBCEF00F0003601360236032EA7EFDA
:10015E0000F0B7EF00F0010E0C6E69DFBFEF00F09C
:10016E00020E0C6E6BDFBFEF00F0040E0C6E4FDF55
:02017E0012006D
:1001800056CA04F057CA05F004C002F005C003F0D7
:10019000044A052A58CA00F059CA01F00A01584B0E
:1001A000592B00C0E9FF01C0EAFF02C0E1FF03C014
:1001B000E2FFEECFE6FF02C0E9FF03C0EAFFEE5226
:0E01C00001E0E2D756CA00F057CA01F0120063
:1001CE00086A096A000E076203646CEF01F00250C0
:1001DE0006180A6E075003267E0ED8A0FDEF00F01B
:1001EE00035ED8B070EF01F001EF01F0035ED8A00E
:1001FE0074EF01F0028E068E02C00EF001C00BF0FD
:10020E0000C00DF000500402F4CF0CF001500502B6
:10021E00F4CF00F0F3CF08F00402F3500C26F450A4
:10022E000822000E00220D500502F3500C26F45049
:10023E000822000E002202500402F3500826F45049
:10024E00002202500502016A000E0122F350002620
:10025E00F45001220D500602F3500826F4500022ED
:10026E00026A000E012202220B500602F3500026F3
:10027E00F4500122000E02220E500602F350012607
:10028E00F450022202BE54EF01F008360036013659
:10029E0002360306D8B474EF01F067EF01F0D88090
:1002AE00800E08640030000E002201220222D8A027
:1002BE0067EF01F0023201320032034A70EF01F0B3
:1002CE000AAE029E000E76EF01F0010EB0DE76EF62
:1002DE0001F0020EA0DE76EF01F0040EAFDE12008A
:1002EE0056CA02F057CA03F002C000F003C001F074
:1002FE00024A032A00C0E9FF01C0EAFFEE5201E004
:10030E00F3D70A015651025C006E57510358016E25
:0A031E00010E005E000E015A1200ED
:10032800086A080E0C6E003408360450085ED8B00F
:0E03380002D00826D89000360C2EF5D7120001
:100346000A6A0350D8A40A800750D8A40A820A5021
:10035600D8B406EF02F0030AD8B4BFEF01F00AB032
:10036600BAEF01F006AE04EF02F002EF02F002AEC1
:1003760002EF02F004EF02F00250800B0A6E029EBA
:100386000650800B069E0A18D8B4D0EF01F00A502A
:10039600D8B402EF02F004EF02F00750035CD8B4C1
:1003A600DAEF01F0D8A0F6EF01F0FCEF01F006500D
:1003B600025CD8B4E4EF01F0D8A0F6EF01F0FCEF50
:1003C60001F00550015CD8B4EEEF01F0D8A0F6EFCD
:1003D60001F0FCEF01F00450005CD8B406EF02F027
:1003E600D8B0FCEF01F00A52D8B404EF02F002EFE5
:1003F60002F00A52D8B402EF02F004EF02F0D880FD
:0E0406001200D8901200D880D8841200120084
:0E041400330E0D6E0D2EFED7000000001200FC
:10042200020E0C6E490E0D6E0D2EFED70C2EFCD751
:06043200000000001200B2
:0A043800210E0D6E0D2EFED71200EE
:06044200000000001200A2
:100448000A014A6B4B6B4C6B4D6B48CA56FA49CA4A
:1004580057FA49DF00C04AFA01C04BFA4C6B4D6BA2
:100468004B514D5D02E14A514C5D10E24C5148251B
:10047800E96E4D514921EA6EEECF56FA11DE00C001
:0E04880056FA3ADE0A014C4B4D2BEAD7120011
:100496000450000A12E10550000A0FE10650000A56
:1004A6000CE10750000A09E1FF0E006EFF0E016E17
:1004B6007F0E026EFF0E036EA4D0086A096A07500B
:1004C600D8B4F6EF02F00350D8B4FAEF02F00250B7
:1004D60006180A6E028E068E0E6A02C008F001C069
:1004E6000CF000C00DF004500D5E0550D8A0053C80
:1004F6000C5E0650D8A0063C085E086A0C6A0D6AB7
:10050600D8A08DEF02F0D8900232013200320832C4
:10051600010E0E6E0750035ED8A09AEF02F07E0E13
:100526000E240326D8B0FEEF02F0A0EF02F07E0EF6
:100536000E240326D8A002EF03F0180E0B6E0D361C
:100546000C3608360036013602360E360450005E8A
:100556000550D8A0053C015E0650D8A0063C025EB8
:1005660006340E120EA0BBEF02F00D80C6EF02F0AD
:10057600045000260550D8B0053C01260650D8B0D8
:10058600062802260D900B2EA2EF02F0ECEF02F0E9
:10059600D8900036013602360E360450005E0550FD
:1005A600D8A0053C015E0650D8A0063C025E063483
:1005B6000E10010B0D26D8B00C2AD8B4082AD8A4E0
:1005C600ECEF02F008320C320D32032AD8B4FEEFFB
:1005D60002F00AAE089E0850026E0C50016E0D50D5
:1005E600006E04EF03F0010E84DD04EF03F0020E4B
:1005F60022DD04EF03F0040E12DD04EF03F0080E13
:0406060021DD1200E0
:10060A000A01546B556B48CA50FA49CA51FA4ACA88
:10061A0052FA4BCA53FA5351FF0A08E15251FF0AE0
:10062A0005E15151FF0A02E15051FF0A0CE14CCA9F
:10063A0056FA4DCA57FA610E586F010E596F9BDD73
:10064A00030E006EE5D1010E4E6F52AF0ED0800E32
:10065A005219006E00C052FA4E2B4CCAE1FF4DCA25
:10066A00E2FF2D0EE66E4C4B4D2B000E006E531919
:10067A0008E10050521905E10050511902E15051A8
:10068A00000A0BE14CCA56FA4DCA57FA5F0E586F68
:10069A00010E596F70DD006ABBD15351FF0A08E1A0
:1006AA005251000A05E15151000A02E15051000A73
:1006BA000CE14CCA56FA4DCA57FA650E586F010E2C
:1006CA00596F59DD4ECA00F0A3D1000E046E000E18
:1006DA00056E000E066E7F0E076E50CA00F051CAF4
:1006EA0001F052CA02F053CA03F028DE010ED8B054
:1006FA00000E006E00521BE050CA00F051CA01F011
:10070A0052CA02F053CA03F0000E046E000E056EC0
:10071A00200E066E820E076E55DD00C050FA01C02B
:10072A0051FA02C052FA03C053FA5507CED7000E47
:10073A00046E000E056E200E066E820E076E50CAFB
:10074A0000F051CA01F052CA02F053CA03F0F6DDB2
:10075A00000ED8B0010E006E00521BE050CA00F025
:10076A0051CA01F052CA02F053CA03F0CD0E046E08
:10077A00CC0E056E4C0E066E7B0E076E23DD00C096
:10078A0050FA01C051FA02C052FA03C053FA552B6B
:10079A00CED7FF0E5015086EFF0E5115096E7F0E4B
:1007AA0052150A6E000E53150B6E08C004F009C0EC
:1007BA0005F00AC006F00BC007F0043604900536AF
:1007CA0006360736000E5015006E000E5115016EE2
:1007DA00000E5215026EFF0E5315036E00C050FA3A
:1007EA0001C051FA02C052FA03C053FA0450501120
:1007FA00006E05505111016E06505211026E0750DB
:10080A005311036E00C050FA01C051FA02C052FAE5
:10081A0003C053FA7F0E535D006E00C04FFA010EFB
:10082A00536F00C004F050CA00F051CA01F052CA16
:10083A0002F053CA03F0045007E000360090013674
:10084A0002360336FF0FF8D700C050FA01C051FA3A
:10085A0002C052FA03C053FA4CCAE1FF4DCAE2FF82
:10086A005351300FE66E4C4B4D2B800E5519006ECE
:10087A00800E010A005C08E3800E060A006E800EF4
:10088A005519005C01E30AD04CCAE1FF4DCAE2FFE8
:10089A002E0EE66E4C4B4D2B010E546F060E4F6F0B
:1008AA004F51000A54E0536B50CA00F051CA01F08C
:1008BA0052CA02F053CA03F00036009001360236DB
:1008CA0003360036009001360236033650510026B0
:1008DA0051510122525102225351032200C050FAAF
:1008EA0001C051FA02C052FA03C053FA50CA00F0CA
:1008FA0051CA01F052CA02F053CA03F000360090FE
:10090A0001360236033600C050FA01C051FA02C05D
:10091A0052FA03C053FA4CCAE1FF4DCAE2FF5351DF
:10092A00300FE66E4C4B4D2B5451000A0EE1550721
:10093A005551000A0AE14CCAE1FF4DCAE2FF2E0EE8
:10094A00E66E4C4B4D2B010E546F4F07A9D7FF0E85
:10095A004C25E96EFF0E4D21EA6EEE50300A05E194
:10096A00010E4C5F000E4D5BF2D7FF0E4C25E96E6F
:10097A00FF0E4D21EA6EEE502E0A04E1010E4C5F85
:10098A00000E4D5B5551000A3DE04CCAE1FF4DCACD
:10099A00E2FF650EE66E4C4B4D2B800E5519006E2C
:1009AA00800E000A005C0BE24CCAE1FF4DCAE2FF6E
:1009BA002D0EE66E4C4B4D2B55510008556F55CAFE
:1009CA004FFA555109080EE20A0E046E4FCA00F09A
:1009DA00A6DC4CCAE1FF4DCAE2FF0050300FE66EBA
:1009EA004C4B4D2B0A0E046E4FCA00F098DC08C01F
:1009FA0000F04CCAE1FF4DCAE2FF0050300FE66E2C
:100A0A004C4B4D2B4CCAE1FF4DCAE2FFE66A006A25
:020A1A001200C8
:100A1C000050086E0150006E016A026A036A0B6A8C
:100A2C000C6A960E036E0A6A00C001F008C000F052
:0A0A3C00086A026A87EC00F012005D
:100A4600E0C9BCF90901BD6BBC0E006E090E016E52
:020A560012008C
:100A58000B6A0A6A096A00500402F4CF09F0F3CF5E
:100A680008F001500502F4CF0BF0F3CF0AF0005064
:100A78000502F3500926F4500A22E86A0B220150B5
:100A88000402F3500926F4500A22E86A0B2208C02F
:100A980000F009C001F00AC002F00BC003F0120018
:100AA800E0C904F0E1C905F004C0E9FF05C0EAFFA8
:100AB800EE5203E0044A052AF7D704C002F005C045
:100AC80003F0044A052AE2C900F0E3C901F009016C
:100AD800E24BE32B00C0E9FF01C0EAFF02C0E1FFDF
:100AE80003C0E2FFEECFE6FF02C0E9FF03C0EAFF62
:100AF800EE5201E0E2D7E0C900F0E1C901F01200CE
:100B0800086A096A100E0C6E01340836093604505A
:100B1800085E0550D8A0053C095ED8B007D004503F
:100B280008260550D8B0053C0926D890003601366D
:060B38000C2EEAD71200AA
:100B3E00E2C901F0010E006E015004E00036009093
:100B4E00FF0FFBD700C0E4F9001EE0C9E9FFE1C9C1
:100B5E00EAFF0050EF16120EE9260050EF165ADC8F
:100B6E000901E451EF12120EE95E4DDCE451EF146F
:100B7E00E36FE351000A000ED8A4010EE36F4ADCC6
:060B8E00E3C900F01200B3
:100B9400E2C901F0010E006E015004E0003600903D
:100BA400FF0FFBD700C0E6F9001E00C0E5F9E0C95D
:100BB400E9FFE1C9EAFF0050EF16120EE926090128
:100BC400E46BE451070815E3E4C900F0E3C901F05C
:100BD400005004E00132019EFF0FFBD7E551EF16F0
:100BE40001A002D0E651EF1213DCE651EF12E42B20
:0C0BF400E8D7120EE95E1EDC1DDC1200CA
:100C0000E2C901F0010E006E015004E000360090D0
:100C1000FF0FFBD700C0E6F9001C0901E56FE46B8C
:100C2000E0C9E9FFE1C9EAFFE36BE351070823E309
:100C3000E551EF16120EE926E551EF1602DCE651FA
:100C4000EF1221EC02F0120EE95EE651EF14006E95
:100C50000CE0E3C901F0010E006E015004E0003623
:100C60000090FF0FFBD70050E4131CEC02F01CECCB
:0C0C700002F0E32BDAD7E4C900F0120018
:0A0C7C00000EA4BA010E006E120073
:100C860074CF01F071A202D07198718801C000F092
:020C960012004A
:100C9800206A3F0E0A01566F090E576F77EC01F074
:100CA80000C03DF901C03EF9176A186A176A186A48
:100CB800010E09013D5D016E000E3E59026E0250A3
:100CC800185C02E10150175C0BE23F0E1724D96E45
:100CD800090E1820DA6EDE502026174A182AE8D79F
:0A0CE8003F0E2016200E20261200F9
:100CF200070E0901E16F000EE26FE1C901F0010E7A
:100D0200006E015004E000360090FF0FFBD7001E7A
:0A0D1200E051001600C0E0F91200E5
:100D1C00206A3F0E0A01566F090E576F77EC01F0EF
:100D2C0000C03DF901C03EF9010E005E000E015AF3
:100D3C003F0E0024E96E090E0120EA6EEECF3CF95D
:100D4C00176A186A176A186A020E09013D5D016E6E
:100D5C00000E3E59026E0250185C02E10150175C05
:100D6C000BE23F0E1724D96E090E1820DA6EDE50F6
:100D7C002026174A182AE8D73F0E2014006E200EA2
:100D8C000024016E01C020F001503C1905E1010E58
:0E0D9C00006E000E016E02D0006A016A1200A5
:100DAA00E00E0F01426F080EC16E800EC06EC29433
:100DBA00C296C298C29AC29CC280C282C2A201D002
:100DCA00FDD7C4CF01F0006AC3500024036E000EA1
:100DDA000120046E03C000F004C001F00036009048
:100DEA00013617DE00C0E0F901C0E1F902C0E2F9FC
:100DFA0003C0E3F9000E046E400E056E1C0E066E6B
:100E0A008C0E076E4BEC02F000C0E0F901C0E1F96C
:100E1A0002C0E2F903C0E3F90901E46B00C048FA31
:100E2A0001C049FA02C04AFA03C04BFAE40E0A01A9
:100E3A004C6F090E4D6F05EC03F0290E486F000E3A
:100E4A00496F24EC02F0E40E486F090E496F24EC56
:100E5A0002F0260E486F000E496F24EC02F03C0E99
:100E6A00486F010E496F24EC02F0E40E486F090E38
:100E7A00496F24EC02F0390E486F010E496F24ECD9
:100E8A0002F0E0C900F0E1C901F0E2C902F0E3C9E9
:040E9A0003F012004F
:100E9E000B0E0B6E260E0C6E5D0E0D6E0D2EFED70E
:0E0EAE000C2EFCD70B2EFAD70000000012000D
:100EBC00FF0E0901B86FFF0EB96FFF0EBA6FFF0E70
:100ECC00BB6F860EB46F0C0EB56F000EB66F000EB6
:100EDC00B76F7C0EB06F0C0EB16F000EB26F000EC0
:100EEC00B36FFF0EBE6FFF0EBF6F000EC06F000E14
:100EFC00C16F728A900E716E938E939CA4AA03D0CC
:080F0C0074CF00F0FBD71200C6
:100F14000900F5CFE6FF0006FBE10106F9E1120046
:100F24000901C46BC56BC46BC56B800EC519006E1B
:100F3400800EC319005C02E1C251C45D1FE28086C9
:100F4400020E0B6E040E0C6EBA0E0D6E0D2EFED735
:100F54000C2EFCD70B2EFAD700008096020E0B6ED7
:100F6400040E0C6EBA0E0D6E0D2EFED70C2EFCD791
:0E0F74000B2EFAD70000C44BC52BD7D71200A6
:100F8200000E0901B86F010EB96F560EBA6F0A0E44
:100F9200BB6FFF0EB46FFF0EB56F000EB66F000E83
:100FA200B76FFF0EB06FFF0EB16F000EB26F000E83
:100FB200B36FFF0EBE6FFF0EBF6F000EC06F000E4D
:100FC200C16FAC8A900EAB6E948E949C9EAA03D095
:080FD200AECF00F0FBD71200C6
:100FDA0001016C6B0901916B8F6BD1808F51020AF1
:100FEA0006E19151030A03E1010E006E01D0006A85
:100FFA0000520EE18FC991F93CDE0050010A01E06E
:10100A00FBD73CDE00C0E0F96FDE00C08FF9E6D7FF
:10101A0030DE0050010A01E0FBD730DE00C0E0F903
:10102A0063DE00C08FF9906B8F51030A01E10AD089
:10103A006C0EE06F010EE16F8F0EE26F090EE36F27
:08104A002EDDE6D7D190120063
:101052000901C46BC56B3F6B156A166A6C0E0A01F7
:10106200566F010E576F77EC01F0800E1618026E64
:10107200800E0118025C02E10050155C39E26C0E30
:101082001524E96E010E1620EA6EEECF01F001C0C2
:101092006BF101500A0A11E001016B510D0A0DE0DA
:1010A2006BC1C2F90901C36B3F0EE06F090EE16F1C
:1010B200C20EE26F090EE36FF6DC6C0E1524E96EC8
:1010C200010E1620EA6EEE500D0A0FE126DE00C078
:1010D200C4F901C0C5F93F6B000E011802E1000E10
:1010E200001803E1006A016A11D0154A162AB6D720
:1010F2000901000EC51902E1000EC41903E1006ADC
:0E110200016A04D0010E006E000E016E120094
:1011100009013F6B3F0EE06F090EE16F1B0EE26F9E
:10112000000EE36FC1DC200EE06F8DDC00C0E2F941
:1011300001C0E3F93F0EE06F090EE16FB5DC3F0E31
:10114000E06F090EE16F19C0E2F91AC0E3F9ACDCF7
:10115000200EE06F78DC00C0E2F901C0E3F93F0E39
:10116000E06F090EE16FA0DC97DD09013F6B0A0E0D
:10117000E06F69DC00C0E2F901C0E3F93F0EE06F07
:10118000090EE16F91DC3F0EE06F090EE16F210E59
:10119000E26F000EE36F88DC200EE06F54DC00C0CD
:1011A000E2F901C0E3F93F0EE06F090EE16F7CDC6C
:1011B0003F0EE06F090EE16F19C0E2F91AC0E3F9C2
:1011C00073DC200EE06F3FDC00C0E2F901C0E3F900
:1011D0003F0EE06F090EE16F67DC20C0E0F933DC01
:1011E00000C0E2F901C0E3F93F0EE06F090EE16FC4
:1011F0005BDC0D0EE06F27DC00C0E2F901C0E3F913
:101200003F0EE06F090EE16F4FDC710E0A01566F61
:10121000090E576F3F0E586F090E596FC0EC00F062
:021220001200BA
:101222000901C76BC86B300E196E010E1A6E800E63
:10123200E06F0F0EE16F010EE26F80DC800EE06F57
:101242000F0EE16F010EE26FCC0EE36FA2DC800E97
:10125200E06F0F0EE16F010EE26F440EE36F99DC57
:101262004F0E0D6E0D2EFED700000000800EE06FB7
:101272000F0EE16F010EE26F61DC800EE06F0F0E68
:10128200E16F010EE26FCC0EE36F83DC800EE06F44
:101292000F0EE16F010EE26FBE0EE36F7ADC020EFB
:1012A2000B6E380E0C6EAD0E0D6E0D2EFED70C2E83
:1012B200FCD70B2EFAD7800EE06F0F0EE16F010EF6
:1012C200E26F9DDC00C0C5F9000EC66F800EE06FB4
:1012D2000F0EE16F010EE26F92DC00C005F0046AAE
:1012E200C5510424026EC6510520036E02C0C5F921
:1012F20003C0C6F903AE0ED019C0E1FF1AC0E2FF67
:101302002D0EE66EC51FC61FC54BC62B010EC76F3D
:10131200000EC86FC5C900F0C6C901F00132003223
:10132200019E01320032019E01320032019E0132E1
:101332000032019E00C0C2F9640E046E94EC01F00A
:10134200005213E019C0C9F91AC0CAF9640E046E3A
:10135200C2C900F094EC01F0300E0026C9C9E1FFC9
:10136200CAC9E2FF00C0E6FF06D019C0E1FF1AC0F9
:10137200E2FF300EE66E010E1924C96F000E1A202C
:10138200CA6F0A0E046EC2C900F094EC01F00A0E94
:10139200046E94EC01F008C000F0300E0026C9C9BA
:1013A200E1FFCAC9E2FF00C0E6FF020E1924C96FBD
:1013B200000E1A20CA6F0A0E046EC2C900F094EC25
:1013C20001F008C000F0300E0026C9C9E1FFCAC909
:1013D200E2FF00C0E6FFC5C9C3F9C6C9C4F90F0ED2
:1013E200C515006EC6C901F0000E011600C0C3F992
:1013F20001C0C4F9710E046E020E056E2CEC05F0EC
:1014020000C0C3F901C0C4F9040E1924C96F000E4B
:101412001A20CA6FE80E046E030E056E84EC05F006
:10142200300E0026C9C9E1FFCAC9E2FF00C0E6FFCB
:10143200050E1924C96F000E1A20CA6F640E046EBD
:10144200000E056EC3C900F0C4C901F084EC05F0BA
:101452000A0E046E000E056E84EC05F008C000F062
:1014620009C001F0300E0026C9C9E1FFCAC9E2FF76
:1014720000C0E6FF060E1924C96F000E1A20CA6FBB
:101482000A0E046E000E056EC3C900F0C4C901F055
:1014920084EC05F00A0E046E000E056E84EC05F075
:1014A20008C000F009C001F0300E0026C9C9E1FFF2
:1014B200CAC9E2FF00C0E6FF070E1924C96F000E79
:1014C2001A20CA6F0A0E046E000E056EC3C900F020
:1014D200C4C901F084EC05F008C000F009C001F0B5
:1014E200300E0026C9C9E1FFCAC9E2FF00C0E6FF0B
:1014F200C751C81106E019C0E1FF1AC0E2FF2D0E64
:04150200E66E12007F
:101506000901C26B4FDC00C048FA01C049FA02C0AB
:101516004AFA03C04BFAC20E4C6F090E4D6F05EC2A
:1015260003F009013F6B3F0EE06F090EE16F520EAB
:10153600E26F010EE36F54EC05F0200EE06F23EC32
:1015460005F000C0E2F901C0E3F93F0EE06F090EB5
:10155600E16F54EC05F03F0EE06F090EE16FC20E2D
:10156600E26F090EE36F54EC05F0200EE06F23ECFA
:1015760005F000C0E2F901C0E3F93F0EE06F090E85
:10158600E16F54EC05F04CEC06F009013F6B0A0ED6
:10159600E06F23EC05F000C0E2F901C0E3F93F0E6D
:1015A600E06F090EE16F54EC05F03F0EE06F090E97
:1015B600E16F4E0EE26F010EE36F54EC05F0200E64
:1015C600E06F23EC05F000C0E2F901C0E3F93F0E3D
:1015D600E06F090EE16F54EC05F03F0EE06F090E67
:1015E600E16FC20EE26F090EE36F54EC05F0200EB8
:1015F600E06F23EC05F000C0E2F901C0E3F93F0E0D
:10160600E06F090EE16F54EC05F020C0E0F923EC21
:1016160005F000C0E2F901C0E3F93F0EE06F090EE4
:10162600E16F54EC05F00D0EE06F23EC05F000C001
:10163600E2F901C0E3F93F0EE06F090EE16F54ECE9
:1016460005F0920E0A01566F090E576F3F0E586F3E
:0A165600090E596FC0EC00F01200FD
:1016600089EC0CF0799E789E926A936A946A806AFB
:10167000816A816A826A8180D19092820F01389357
:10168000050E0901C26F000EC36F4CDCB886060E52
:10169000B06E820EAF6EAC8474DC7086060E766E11
:1016A000820E756E72840ADC4FEC07F0BADD4FECE7
:1016B00007F0B7DD4FEC07F0050EC26F000EC36FE9
:1016C00031DC01016C6B6C0E0901E06F010EE16F02
:1016D000360EE26F000EE36F54EC05F0BADC0050FA
:1016E000011004E1808679DC8096F8D70901020EAA
:1016F000C26F000EC36F16DC94DD0ADD04DF81903B
:10170000100E0B6E390E0C6E0D0E0D6E0D2EFED7DB
:101710000C2EFCD70B2EFAD70000000001014C6BF9
:101720004D6B800E4D19006E800E005C02E1080EBC
:101730004C5D2FE2020E0A01566F54EC00F000C01F
:1017400056FA80EC00F06C0E0A01486F010E496FEA
:1017500024EC02F0710E486F090E496F24EC02F080
:10176000920E486F090E496F24EC02F0030E566F7B
:1017700054EC00F000C056FA80EC00F0010E0901B4
:10178000C26F000EC36F92EC07F001014C4B4D2B62
:10179000C8D78180800E6A19006E800E005C02E15D
:1017A000050E695D05E24FEC07F0694B6A2BF2D735
:0C17B000696B6A6B4C6B4D6B84D7FFD7E4
:1019120010EE15F0560E006E020E016EBC0EF66E43
:0E192200170EF76E000EF86E8AEC07F012003A
:0217BC0000002B
:0217BE00000029
:0217C0005601D0
:0517C20054454D5000EC
:0117C7000021
:0517C80054454D5000E6
:0317CD000D0A0002
:0D17D0004144432056616C7565203A2000AD
:1017DD000A4144434F2030343037323630303635BD
:1017ED003234203B0D0A4F50544152494620484354
:1017FD002E2E203C0D0A49534F5553432032352090
:10180D003D0D0A48434843203032343737303634A3
:10181D003320270D0A4843485020303536353335AF
:10182D0039313420390D0A505445432048432E2E6A
:10183D0020530D0A49494E53543120303030204841
:10184D000D0A49494E53543220303031204A0D0A89
:10185D0049494E53543320303031204B0D0A494DF8
:10186D004158312030333320360D0A494D4158321D
:10187D0020303339203D0D0A494D41583320303346
:10188D003020350D0A504D4158203137303430203D
:10189D00320D0A50415050203030343730202C0D4D
:1018AD000A48485048432044202F0D0A4D4F5444B8
:1018BD00455441542030303030303020420D0A50E4
:0A18CD00504F5420303020230D004E
:0918D7003030302E30303030008A
:0318E0000D0A00EE
:1018E3004441544120566F6C74616765203A20006F
:0218F3000000F3
:0418F5005644440011
:0418F900564444000D
:0918FD003030302E303030300064
:021906003000AF
:041908004E614E00DE
:04190C00494E4600FA
:021910000000D5
:020000040030CA
:0D000100231F3EFFBF81FF0FC00FE00F4027
:00000001FF
