:1000000005EF0BF00000000000EF00F00000000022
:0A0010000000000000000000F3D71C
:08001C000AAE029E000E120064
:100024000B840BAE1DEF00F0010E036E026A016A31
:0A003400006A0A360232FF0E1200C5
:0E003E00026A016A006A086A036A000E120074
:10004C000C6A0E6A0250D8A43FEF00F001C002F017
:10005C0000C001F0006A0E860250D8A43FEF00F0F9
:10006C0001C002F0016A0E960E880250D8B451EF0E
:10007C0000F00E50035ED8A4D8A056EF00F0D89034
:10008C0002BE5BEF00F0003601360236032E46EF5F
:10009C0000F056EF00F0010E0C6ECBDF5EEF00F0BF
:1000AC00020E0C6EB9DF5EEF00F0040E0C6EB0DFCA
:0200BC00120030
:1000BE000B820BAE69EF00F00368026801680068FE
:0800CE000A360232FF0E120097
:0800D6000B6A0B86FF0E1200FD
:1000DE00020E0C6E490E0D6E0D2EFED70C2EFCD799
:0600EE00000000001200FA
:1000F400070E0301F06F000EF16FF26BF0C301F015
:10010400010E006E015004E000360090FF0FFBD793
:10011400001E0050EF17EF530AE0F253010ED8A46B
:10012400000EF26FEF05006E0050EF17F4D7F2C324
:0401340000F01200C5
:06013800000000001200AF
:0A013E00210E0D6E0D2EFED71200EB
:1001480000C008F00150006E016A026A036A0B6A77
:100158000C6A016A026A036A960E036E0A6A00AEA6
:10016800BCEF00F0081E001E082AD8B4002A0A8E28
:1001780000C001F008C000F0086A026A63DF1200DC
:100188000450000A12E10550000A0FE10650000A67
:100198000CE10750000A09E1FF0E006EFF0E016E28
:1001A8007F0E026EFF0E036EA4D0086A096A07501C
:1001B800D8B46FEF01F00350D8B473EF01F00250D8
:1001C80006180A6E028E068E0E6A02C008F001C07A
:1001D8000CF000C00DF004500D5E0550D8A0053C91
:1001E8000C5E0650D8A0063C085E086A0C6A0D6AC8
:1001F800D8A006EF01F0D89002320132003208325E
:10020800010E0E6E0750035ED8A013EF01F07E0EAC
:100218000E240326D8B077EF01F019EF01F07E0E17
:100228000E240326D8A07BEF01F0180E0B6E0D36B6
:100238000C3608360036013602360E360450005E9B
:100248000550D8A0053C015E0650D8A0063C025EC9
:1002580006340E120EA034EF01F00D803FEF01F0CE
:10026800045000260550D8B0053C01260650D8B0E9
:10027800062802260D900B2E1BEF01F065EF01F00A
:10028800D8900036013602360E360450005E05500E
:10029800D8A0053C015E0650D8A0063C025E063494
:1002A8000E10010B0D26D8B00C2AD8B4082AD8A4F1
:1002B80065EF01F008320C320D32032AD8B477EF1B
:1002C80001F00AAE089E0850026E0C50016E0D50E7
:1002D800006E7DEF01F0010EFADE7DEF01F0020EF7
:1002E800AADE7DEF01F0040EE6DE7DEF01F0080ED8
:0402F80095DE12007D
:1002FC000A6A0350D8A40A800750D8A40A820A506C
:10030C00D8B4E1EF01F0030AD8B49AEF01F00AB0C7
:10031C0095EF01F006AEDFEF01F0DDEF01F002AE7C
:10032C00DDEF01F0DFEF01F00250800B0A6E029E50
:10033C000650800B069E0A18D8B4ABEF01F00A5099
:10034C00D8B4DDEF01F0DFEF01F00750035CD8B457
:10035C00B5EF01F0D8A0D1EF01F0D7EF01F00650C6
:10036C00025CD8B4BFEF01F0D8A0D1EF01F0D7EF09
:10037C0001F00550015CD8B4C9EF01F0D8A0D1EF61
:10038C0001F0D7EF01F00450005CD8B4E1EF01F0BC
:10039C00D8B0D7EF01F00A52D8B4DFEF01F0DDEF9F
:1003AC0001F00A52D8B4DDEF01F0DFEF01F0D88094
:0E03BC001200D8901200D880D88412001200CF
:1003CA00086A080E0C6E003408360450085ED8B06D
:0E03DA0002D00826D89000360C2EF5D712005F
:0E03E800330E0D6E0D2EFED700000000120029
:1003F600EFC304F0F0C305F004C002F005C003F03B
:10040600044A052AF1C300F0F2C301F00301F14BDF
:10041600F22B00C0E9FF01C0EAFF02C0E1FF03C002
:10042600E2FFEECFE6FF02C0E9FF03C0EAFFEE52AD
:0E04360001E0E2D7EFC300F0F0C301F01200C6
:10044400086A096A000E07620364A7EF02F002500B
:1004540006180A6E075003267E0ED8A038EF02F065
:10046400035ED8B0ABEF02F03CEF02F0035ED8A01D
:10047400AFEF02F0028E068E02C00EF001C00BF048
:1004840000C00DF000500402F4CF0CF0015005023E
:10049400F4CF00F0F3CF08F00402F3500C26F4502C
:1004A4000822000E00220D500502F3500C26F450D1
:1004B4000822000E002202500402F3500826F450D1
:1004C400002202500502016A000E0122F3500026A8
:1004D400F45001220D500602F3500826F450002275
:1004E400026A000E012202220B500602F35000267B
:1004F400F4500122000E02220E500602F35001268F
:10050400F450022202BE8FEF02F0083600360136A4
:1005140002360306D8B4AFEF02F0A2EF02F0D8809F
:10052400800E08640030000E002201220222D8A0AE
:10053400A2EF02F0023201320032034AABEF02F0C2
:100544000AAE029E000EB1EF02F0010E76DDB1EFAD
:1005540002F0020EB2DDB1EF02F0040E61DD120012
:10056400EFC302F0F0C303F002C000F003C001F0D7
:10057400024A032A00C0E9FF01C0EAFFEE5201E08B
:10058400F3D70301EF51025C006EF0510358016E82
:0A059400010E005E000E015A120075
:10059E00E1C3C1F30301C26BC10E006E030E016E07
:0205AE00120039
:1005B000070E0301E26F000EE36FE2C301F0010ECC
:1005C000006E015004E000360090FF0FFBD7001EC4
:0A05D000E151001600C0E1F3120033
:1005DA00070E0301E26F000EE36FE1C3EFF385DD5F
:1005EA000050000A0EE1E2C301F0010E006E015054
:1005FA0004E000360090FF0FFBD7001E0050E11701
:10060A000CD0E2C301F0010E006E015004E0003686
:10061A000090FF0FFBD70050E113E1C300F0120076
:0E062A00ACB202D00000FCD7E1C3ADFF12005D
:10063800900E0F01426F42BD01D0FDD7800EC16EF2
:10064800B80EC06E7D0EC26EC282C2A201D0FDD7A6
:10065800C4CF01F0006AC3500012000E011270DD11
:1006680000C004F001C005F002C006F003C007F0A6
:10067800000E006E000E016E000E026E890E036EF3
:100688007FDD6F0E046E120E056E030E066E7F0E72
:06069800076ED4DE120023
:10069E00E3C301F0010E006E015004E0003600903D
:1006AE00FF0FFBD700C0E7F3001C0301E66FE56BFD
:1006BE00E1C3E9FFE2C3EAFFE46BE451070820E37C
:1006CE00E651EF16120EE926E651EF162EDDE75132
:1006DE00EF122BDD120EE95EE751EF14006E0CE007
:1006EE00E4C301F0010E006E015004E000360090EC
:1006FE00FF0FFBD70050E5131BDD1ADDE42BDDD712
:06070E00E5C300F012003B
:10071400176A480E0301EF6F010EF06F21DF00C06E
:100724007BF101C07CF1010E005E000E015A480EFF
:100734000024E96E010E0120EA6EEECF92F301016E
:10074400296B2A6B296B2A6B020E7B5D016E000EEE
:100754007C59026E02502A5D02E10150295D0BE2D0
:10076400480E2925D96E010E2A21DA6EDE5017268D
:10077400294B2A2BE9D73F0E1714006E200E0024B4
:10078400016E01C017F001500301921905E1010E39
:0E079400006E000E016E02D0006A016A1200B3
:1007A200176A480E0301EF6F010EF06FDADE00C028
:1007B2007BF101C07CF10101296B2A6B296B2A6B49
:1007C200010E7B5D016E000E7C59026E02502A5DA5
:1007D20002E10150295D0BE2480E2925D96E010E76
:1007E2002A21DA6EDE501726294B2A2BE9D73F0E33
:0807F2001716200E1726120055
:1007FA000B6A0A6A096A00500402F4CF09F0F3CFBF
:10080A0008F001500502F4CF0BF0F3CF0AF00050C4
:10081A000502F3500926F4500A22E86A0B22015015
:10082A000402F3500926F4500A22E86A0B2208C08F
:10083A0000F009C001F00AC002F00BC003F0120078
:10084A00E3C301F0010E006E015004E0003600908F
:10085A00FF0FFBD700C0E7F3001E00C0E6F3E1C3B9
:10086A00E9FFE2C3EAFF0050EF16120EE926030180
:10087A00E56BE551070815E3E5C300F0E4C301F0B1
:10088A00005004E00132019EFF0FFBD7E651EF163C
:10089A0001A002D0E751EF12A2DDE751EF12E52BDA
:0C08AA00E8D7120EE95E46DC45DC1200C7
:1008B600086A096A100E0C6E0134083609360450AF
:1008C600085E0550D8A0053C095ED8B007D0045094
:1008D60008260550D8B0053C0926D89000360136C2
:0608E6000C2EEAD71200FF
:0A08EC00000EA4BA010E006E120007
:1008F60074CF01F071A202D07198718801C000F026
:020906001200DD
:100908000301ED6BEE6BE1C3E9F3E2C3EAF3E3C382
:10091800EBF3E4C3ECF3EC51FF0A08E1EB51FF0AF7
:1009280005E1EA51FF0A02E1E951FF0A0CE1E5C3DA
:10093800EFF3E6C3F0F3370EF16F010EF26F57DDF8
:10094800030E006EE7D1010EE76FEBAF0ED0800EFD
:10095800EB19006E00C0EBF3E72BE5C3E1FFE6C33C
:10096800E2FF2D0EE66EE54BE62B000E006EEC194D
:1009780008E10050EB1905E10050EA1902E1E951DC
:10098800000A0BE1E5C3EFF3E6C3F0F3350EF16FB0
:10099800010EF26F2CDD006ABDD1EC51FF0A08E1AF
:1009A800EB51000A05E1EA51000A02E1E951000AA7
:1009B8000CE1E5C3EFF3E6C3F0F33B0EF16F010E74
:1009C800F26F15DDE7C300F0A5D1000E046E000E2E
:1009D800056E000E066E7F0E076EE9C300F0EAC3CF
:1009E80001F0EBC302F0ECC303F084DC010ED8B0D5
:1009F800000E006E00521BE0E9C300F0EAC301F0EC
:100A0800EBC302F0ECC303F0000E046E000E056E9B
:100A1800200E066E820E076E11DD00C0E9F301C0DC
:100A2800EAF302C0EBF303C0ECF3EE07CED7000EF7
:100A3800046E000E056E200E066E820E076EE9C368
:100A480000F0EAC301F0EBC302F0ECC303F052DCA0
:100A5800000ED8B0010E006E00521BE0E9C300F092
:100A6800EAC301F0EBC302F0ECC303F0CD0E046E51
:100A7800CC0E056E4C0E066E7B0E076EDFDC00C0DA
:100A8800E9F301C0EAF302C0EBF303C0ECF3EE2B89
:100A9800CED7FF0EE915086EFF0EEA15096E7F0E18
:100AA800EB150A6E000EEC150B6E08C004F009C0B9
:100AB80005F00AC006F00BC007F0043604900536AE
:100AC80006360736000EE915006E000EEA15016EAF
:100AD800000EEB15026EFF0EEC15036E00C0E9F375
:100AE80001C0EAF302C0EBF303C0ECF30450E911D0
:100AF800006E0550EA11016E0650EB11026E0750A8
:100B0800EC11036E00C0E9F301C0EAF302C0EBF395
:100B180003C0ECF37F0EEC5D006E00C0E8F3010E3D
:100B2800EC6F00C004F0E9C300F0EAC301F0EBC3C6
:100B380002F0ECC303F0045007E0003600900136E1
:100B480002360336FF0FF8D700C0E9F301C0EAF315
:100B580002C0EBF303C0ECF3E5C3E1FFE6C3E2FF39
:100B6800EC51300FE66EE54BE62B800EEE19006E69
:100B7800800E010A005C08E3800E060A006E800EF3
:100B8800EE19005C01E30AD0E5C3E1FFE6C3E2FF2A
:100B98002E0EE66EE54BE62B010EED6F060EE86FA6
:100BA800E851000A54E0EC6BE9C300F0EAC301F035
:100BB800EBC302F0ECC303F00036009001360236B6
:100BC800033600360090013602360336E951002616
:100BD800EA510122EB510222EC51032200C0E9F351
:100BE80001C0EAF302C0EBF303C0ECF3E9C300F081
:100BF800EAC301F0EBC302F0ECC303F00036009047
:100C080001360236033600C0E9F301C0EAF302C038
:100C1800EBF303C0ECF3E5C3E1FFE6C3E2FFEC51FD
:100C2800300FE66EE54BE62BED51000A0EE1EE07BC
:100C3800EE51000A0AE1E5C3E1FFE6C3E2FF2E0E2A
:100C4800E66EE54BE62B010EED6FE807A9D7FF0E20
:100C5800E525E96EFF0EE621EA6EEE50300A05E161
:100C6800010EE55F000EE65BF2D7FF0EE525E96EA3
:100C7800FF0EE621EA6EEE502E0A04E1010EE55F52
:100C8800000EE65BEE51000A3FE0E5C3E1FFE6C374
:100C9800E2FF650EE66EE54BE62B800EEE19006E60
:100CA800800E000A005C0BE2E5C3E1FFE6C3E2FF49
:100CB8002D0EE66EE54BE62BEE510008EE6FEEC307
:100CC800E8F3EE5109080FE20A0E046EE8C300F0DB
:100CD800E5EC01F0E5C3E1FFE6C3E2FF0050300FA9
:100CE800E66EE54BE62B0A0E046EE8C300F0E5EC71
:100CF80001F008C000F0E5C3E1FFE6C3E2FF0050E1
:100D0800300FE66EE54BE62BE5C3E1FFE6C3E2FFF5
:060D1800E66A006A120009
:100D1E00E3C301F0010E006E015004E000360090B6
:100D2E00FF0FFBD700C0E5F3001EE1C3E9FFE2C3EE
:100D3E00EAFF0050EF16120EE9260050EF166FEC88
:100D4E0000F00301E551EF12120EE95EF4EC01F032
:100D5E00E551EF14E46FE451000A000ED8A4010E21
:0C0D6E00E46F6FEC00F0E4C300F0120032
:100D7A00E1C304F0E2C305F004C0E9FF05C0EAFFDD
:100D8A00EE5203E0044A052AF7D704C002F005C070
:100D9A0003F0044A052AE3C300F0E4C301F00301A7
:100DAA00E34BE42B00C0E9FF01C0EAFF02C0E1FF08
:100DBA0003C0E2FFEECFE6FF02C0E9FF03C0EAFF8D
:100DCA00EE5201E0E2D7E1C300F0E2C301F0120003
:100DDA000301C56BC66BC56BC66B800EC619006E68
:100DEA00800EC419005C02E1C351C55D1FE2808612
:100DFA00020E0B6E040E0C6EBA0E0D6E0D2EFED781
:100E0A000C2EFCD70B2EFAD700008096020E0B6E22
:100E1A00040E0C6EBA0E0D6E0D2EFED70C2EFCD7DC
:0E0E2A000B2EFAD70000C54BC62BD7D71200EF
:100E38000900F5CFE6FF0006FBE10106F9E1120023
:100E4800140E0101276F010E286F800E0301E16F58
:100E58000F0EE26F010EE36F5EDF800EE16F0F0E83
:100E6800E26F010EE36FCC0EE46FEBDC800EE16FF6
:100E78000F0EE26F010EE36F440EE46FE2DC4F0EDB
:100E88000D6E0D2EFED700000000800EE16F0F0ED4
:100E9800E26F010EE36F3FDF800EE16F0F0EE26F2E
:100EA800010EE36FCC0EE46FCCDC800EE16F0F0E09
:100EB800E26F010EE36FBE0EE46FC3DC020E0B6E31
:100EC800380E0C6EAD0E0D6E0D2EFED70C2EFCD707
:100ED8000B2EFAD7800EE16F0F0EE26F010EE36F53
:100EE8004FEC03F000C0C6F3000EC76F800EE16F31
:100EF8000F0EE26F010EE36F4FEC03F000C005F038
:100F0800046AC6510424026EC7510520036E02C04C
:100F1800C6F303C0C7F303AE0AD027C1E1FF28C157
:100F2800E2FF2D0EE66EC61FC71FC64BC72BC6C3F2
:100F380000F0C7C301F001320032019E01320032D5
:100F4800019E01320032019E01320032019E00C032
:100F5800C3F3640E046EE5EC01F0005213E027C100
:100F6800C8F328C1C9F3640E046EC3C300F0E5ECEE
:100F780001F0300E0026C8C3E1FFC9C3E2FF00C07C
:100F8800E6FF06D027C1E1FF28C1E2FF300EE66E7A
:100F9800010E010127250301C86F000E0101282158
:100FA8000301C96F0A0E046EC3C300F0E5EC01F03B
:100FB8000A0E046EE5EC01F008C000F0300E0026C1
:100FC800C8C3E1FFC9C3E2FF00C0E6FF020E01018A
:100FD80027250301C86F000E010128210301C96FED
:100FE8000A0E046EC3C300F0E5EC01F008C000F07F
:100FF800300E0026C8C3E1FFC9C3E2FF00C0E6FF08
:10100800C6C3C4F3C7C3C5F30F0EC615006EC7C366
:1010180001F0000E011600C0C4F301C0C5F3710E43
:10102800046E020E056EFDEC03F000C0C4F301C0AF
:10103800C5F3040E010127250301C86F000E010145
:1010480028210301C96FE80E046E030E056E2FDC1C
:10105800300E0026C8C3E1FFC9C3E2FF00C0E6FFA7
:10106800050E010127250301C86F000E0101282183
:101078000301C96F640E046E000E056EC4C300F050
:10108800C5C301F014DC0A0E046E000E056E0FDCF9
:1010980008C000F009C001F0300E0026C8C3E1FF07
:1010A800C9C3E2FF00C0E6FF060E010127250301C0
:1010B800C86F000E010128210301C96F0A0E046ED2
:1010C800000E056EC4C300F0C5C301F05BEC04F06C
:1010D8000A0E046E000E056E5BEC04F008C000F00A
:1010E80009C001F0300E0026C8C3E1FFC9C3E2FF02
:1010F80000C0E6FF070E010127250301C86F000E97
:10110800010128210301C96F0A0E046E000E056E45
:10111800C4C300F0C5C301F05BEC04F008C000F0E4
:1011280009C001F0300E0026C8C3E1FFC9C3E2FFC1
:0611380000C0E6FF1200FA
:10113E000B0E0B6E260E0C6E5D0E0D6E0D2EFED76B
:0E114E000C2EFCD70B2EFAD70000000012006A
:10115C000301C56BC66BC76BC86BC3C3EFF3C4C3CA
:10116C00F0F3B2EC02F000C0C5F301C0C6F3C76BDC
:10117C00C86BC651C85D02E1C551C75D12E2C751CB
:10118C00C325E96EC851C421EA6EEECFE1F3EDEC54
:10119C0002F000C0E1F315EC03F00301C74BC82BC0
:0411AC00E8D712006E
:1011B000FF0E0301BD6FFF0EBE6FFF0EBF6FFF0E70
:1011C000C06FF60EB16F080EB26F000EB36F000E57
:1011D000B46FEC0EB96F080EBA6F000EBB6F000E45
:1011E000BC6FFF0EB56FFF0EB66F000EB76F000E2F
:1011F000B86F728A900E716E938E939CA4AA03D0DE
:0812000074CF00F0FBD71200CF
:101208000301C56BC66B0101486B156A166A7D0E32
:101218000301EF6F010EF06FB2EC02F0800E1618AA
:10122800026E800E0118025C02E10050155C3BE280
:101238007D0E1524E96E010E1620EA6EEECF01F040
:1012480001C07AF101500A0A11E001017A510D0A30
:101258000DE07AC1C3F30301C46B480EE16F010EC0
:10126800E26FC30EE36F030EE46F83DD7D0E15247A
:10127800E96E010E1620EA6EEE500D0A11E18AECB5
:1012880003F000C0C5F301C0C6F30101486B000EAE
:10129800011802E1000E001803E1006A016A11D08A
:1012A800154A162AB4D7000E0301C61902E1000E2A
:1012B800C51903E1006A016A04D0010E006E000E30
:0412C800016E1200A1
:1012CC0001017D6B71C373F376EC04F00050010ADD
:1012DC0001E0FAD77BEC04F000C0E1F3D8EC02F0AB
:1012EC0000C071F30050020A06E17351030A03E1D6
:1012FC00010E006E01D0006A0052E4E076EC04F0BE
:10130C000050010A01E0FAD77BEC04F000C0E1F3D5
:10131C00D8EC02F000C071F3726B7151030A01E159
:10132C000AD07D0EE16F010EE26F710EE36F030EBA
:08133C00E46F1DDDE3D7120090
:101344000301C36B1CEC03F000C0E1F301C0E2F342
:1013540002C0E3F303C0E4F3C30E0301E56F030E1D
:10136400E66F84EC04F00101486B480E0301E16F61
:10137400010EE26F2B0EE36F010EE46FFCDC200E16
:10138400E16FCFEC02F000C0E3F301C0E4F3480ED8
:10139400E16F010EE26FEFDC480EE16F010EE26FC8
:1013A400C30EE36F030EE46FE6DC200EE16FCFECB7
:1013B40002F000C0E3F301C0E4F3480EE16F010E54
:1013C400E26FD9DCD1EC03F0486B0A0E0301E16F44
:1013D400CFEC02F000C0E3F301C0E4F3480EE16F88
:1013E400010EE26FC8DC480EE16F010EE26F2F0EB2
:1013F400E36F010EE46FBFDC200EE16FCFEC02F06F
:1014040000C0E3F301C0E4F3480EE16F010EE26FA4
:10141400B2DC480EE16F010EE26FC30EE36F030E00
:10142400E46FA9DC200EE16FCFEC02F000C0E3F31F
:1014340001C0E4F3480EE16F010EE26F9CDC17C0BB
:10144400E1F3CFEC02F000C0E3F301C0E4F3480E93
:10145400E16F010EE26F8FDC0D0EE16FCFEC02F055
:1014640000C0E3F301C0E4F3480EE16F010EE26F44
:1014740082DC930EEF6F030EF06F480EF16F010ED6
:08148400F26FFBEC01F0120015
:10148C000101486B480E0301E16F010EE26F220E61
:10149C00E36F010EE46F6BDC200EE16FCFEC02F01A
:1014AC0000C0E3F301C0E4F3480EE16F010EE26FFC
:1014BC005EDC480EE16F010EE26F27C1E3F328C139
:1014CC00E4F355DC200EE16FCFEC02F000C0E3F347
:1014DC0001C0E4F3480EE16F010EE26F48DCD1EC81
:1014EC0003F0486B0A0E0301E16FCFEC02F000C071
:1014FC00E3F301C0E4F3480EE16F010EE26F37DC59
:10150C00480EE16F010EE26F1D0EE36F010EE46FEA
:10151C002EDC200EE16FCFEC02F000C0E3F301C033
:10152C00E4F3480EE16F010EE26F21DC480EE16F2F
:10153C00010EE26F27C1E3F328C1E4F318DC200E9F
:10154C00E16FCFEC02F000C0E3F301C0E4F3480E0E
:10155C00E16F010EE26F0BDC17C0E1F3CFEC02F090
:10156C0000C0E3F301C0E4F3480EE16F010EE26F3B
:10157C00BDEC06F00D0EE16FCFEC02F000C0E3F312
:10158C0001C0E4F3480EE16F010EE26FBDEC06F012
:10159C00740EEF6F030EF06F480EF16F010EF26FC9
:0615AC00FBEC01F012004F
:1015B2002A0E0301BD6F060EBE6FE10EBF6F030E52
:1015C200C06FFF0EB16FFF0EB26F000EB36F000E51
:1015D200B46FFF0EB96FFF0EBA6F000EBB6F000E35
:1015E200BC6FFF0EB56FFF0EB66F000EB76F000E29
:1015F200B86FAC8A900EAB6E948E949C9EAA03D068
:08160200AECF00F0FBD712008F
:10160A0024EC0CF0799E789E926A936A946A806AB6
:10161A00816A816A826A8180D19092820F013893AD
:10162A00050E0301C36F000EC46FEDEC06F082DDF8
:10163A0006DC80DD04DC7EDD050EC36F000EC46FA0
:10164A00EDEC06F0B886060EB06E820EAF6EAC8474
:10165A00ABDF7086060E766E820E756E7284A3DD1F
:10166A0001017D6B7D0E0301E16F010EE26F180E21
:10167A00E36F000EE46FBDEC06F0C1DD005001100F
:10168A0004E180861EDE8096F8D70301020EC36F3E
:10169A00000EC46FEDEC06F024EC07F0F2DE4DDE2E
:1016AA008190100E0B6E390E0C6E0D0E0D6E0D2EF6
:1016BA00FED70C2EFCD70B2EFAD700000000010132
:1016CA00126B136B020E0301E16FEDEC02F000C026
:1016DA00E1F315EC03F07D0E0301C36F010EC46F35
:1016EA0038DD740EC36F030EC46F33DD930EC36F00
:1016FA00030EC46F2EDD030EE16FEDEC02F000C0A5
:0A170A00E1F315EC03F0DED7FFD782
:1018480010EE15F0330E006E020E016E140EF66ED9
:0E185800170EF76E000EF86E1CEC07F0120073
:021714000000D3
:0117160000D2
:101717000A4144434F203034303732363030363583
:101727003234203B0D0A4F5054415249462048431A
:101737002E2E203C0D0A49534F5553432032352056
:101747003D0D0A484348432030323437373036346A
:101757003320270D0A484348502030353635333576
:1017670039313420390D0A505445432048432E2E31
:1017770020530D0A49494E53543120303030204808
:101787000D0A49494E53543220303031204A0D0A50
:1017970049494E53543320303031204B0D0A494DBF
:1017A7004158312030333320360D0A494D415832E4
:1017B70020303339203D0D0A494D4158332030330D
:1017C7003020350D0A504D41582031373034302004
:1017D700320D0A50415050203030343730202C0D14
:1017E7000A48485048432044202F0D0A4D4F54447F
:1017F700455441542030303030303020420D0A50AB
:0A180700504F5420303020230D0014
:021811000000D5
:091813003030302E30303030004E
:05181C0054454D500091
:0518210054454D50008C
:021826003F0180
:021828000000BE
:04182A0056444400DC
:04182E0056444400D8
:021832000000B4
:02183400300082
:041836004E614E00B1
:04183A00494E4600CD
:09183E003030302E303030300023
:020000040030CA
:0D000100231F3EFFBF81FF0FC00FE00F4027
:00000001FF
